{
    "_format": "hh-sol-artifact-1",
    "contractName": "Betting",
    "sourceName": "contracts/Betting.sol",
    "abi": [
        {
            "inputs": [],
            "stateMutability": "nonpayable",
            "type": "constructor"
        },
        {
            "inputs": [],
            "name": "AmountOne",
            "outputs": [
                {
                    "internalType": "uint256",
                    "name": "",
                    "type": "uint256"
                }
            ],
            "stateMutability": "view",
            "type": "function"
        },
        {
            "inputs": [],
            "name": "AmountTwo",
            "outputs": [
                {
                    "internalType": "uint256",
                    "name": "",
                    "type": "uint256"
                }
            ],
            "stateMutability": "view",
            "type": "function"
        },
        {
            "inputs": [
                {
                    "internalType": "address",
                    "name": "player",
                    "type": "address"
                }
            ],
            "name": "checkPlayerExists",
            "outputs": [
                {
                    "internalType": "bool",
                    "name": "",
                    "type": "bool"
                }
            ],
            "stateMutability": "view",
            "type": "function"
        },
        {
            "inputs": [
                {
                    "internalType": "uint16",
                    "name": "teamWinner",
                    "type": "uint16"
                }
            ],
            "name": "distributePrizes",
            "outputs": [],
            "stateMutability": "nonpayable",
            "type": "function"
        },
        {
            "inputs": [
                {
                    "internalType": "uint8",
                    "name": "_teamSelected",
                    "type": "uint8"
                }
            ],
            "name": "doBet",
            "outputs": [],
            "stateMutability": "payable",
            "type": "function"
        },
        {
            "inputs": [],
            "name": "kill",
            "outputs": [],
            "stateMutability": "nonpayable",
            "type": "function"
        },
        {
            "inputs": [],
            "name": "minimumBet",
            "outputs": [
                {
                    "internalType": "uint256",
                    "name": "",
                    "type": "uint256"
                }
            ],
            "stateMutability": "view",
            "type": "function"
        },
        {
            "inputs": [],
            "name": "owner",
            "outputs": [
                {
                    "internalType": "address payable",
                    "name": "",
                    "type": "address"
                }
            ],
            "stateMutability": "view",
            "type": "function"
        },
        {
            "inputs": [
                {
                    "internalType": "address",
                    "name": "",
                    "type": "address"
                }
            ],
            "name": "playerInfo",
            "outputs": [
                {
                    "internalType": "uint256",
                    "name": "amountBet",
                    "type": "uint256"
                },
                {
                    "internalType": "uint16",
                    "name": "teamSelected",
                    "type": "uint16"
                }
            ],
            "stateMutability": "view",
            "type": "function"
        },
        {
            "inputs": [
                {
                    "internalType": "uint256",
                    "name": "",
                    "type": "uint256"
                }
            ],
            "name": "players",
            "outputs": [
                {
                    "internalType": "address payable",
                    "name": "",
                    "type": "address"
                }
            ],
            "stateMutability": "view",
            "type": "function"
        },
        {
            "inputs": [],
            "name": "totalBetsOne",
            "outputs": [
                {
                    "internalType": "uint256",
                    "name": "",
                    "type": "uint256"
                }
            ],
            "stateMutability": "view",
            "type": "function"
        },
        {
            "inputs": [],
            "name": "totalBetsTwo",
            "outputs": [
                {
                    "internalType": "uint256",
                    "name": "",
                    "type": "uint256"
                }
            ],
            "stateMutability": "view",
            "type": "function"
        }
    ],
    "bytecode": "0x608060405234801561001057600080fd5b50655af3107a4000600181905550610e638061002d6000396000f3fe6080604052600436106100a75760003560e01c8063657335921161006457806365733592146101b05780637904f688146101db5780638afadeb5146102045780638da5cb5b1461022f578063c38a8afd1461025a578063f71d96cb14610285576100a7565b80632aea7f01146100ac5780634081d916146100c857806341c0e1b5146101055780634996d51d1461011c5780634b114691146101475780635bf6b19f14610185575b600080fd5b6100c660048036038101906100c19190610a20565b6102c2565b005b3480156100d457600080fd5b506100ef60048036038101906100ea9190610aab565b610435565b6040516100fc9190610af3565b60405180910390f35b34801561011157600080fd5b5061011a6104e4565b005b34801561012857600080fd5b50610131610573565b60405161013e9190610b27565b60405180910390f35b34801561015357600080fd5b5061016e60048036038101906101699190610aab565b61057d565b60405161017c929190610b5f565b60405180910390f35b34801561019157600080fd5b5061019a6105af565b6040516101a79190610b27565b60405180910390f35b3480156101bc57600080fd5b506101c56105b5565b6040516101d29190610b27565b60405180910390f35b3480156101e757600080fd5b5061020260048036038101906101fd9190610bb4565b6105bf565b005b34801561021057600080fd5b50610219610911565b6040516102269190610b27565b60405180910390f35b34801561023b57600080fd5b50610244610917565b6040516102519190610c02565b60405180910390f35b34801561026657600080fd5b5061026f61093b565b60405161027c9190610b27565b60405180910390f35b34801561029157600080fd5b506102ac60048036038101906102a79190610c49565b610941565b6040516102b99190610c02565b60405180910390f35b6102cb33610435565b156102d557600080fd5b6001543410156102e457600080fd5b34600560003373ffffffffffffffffffffffffffffffffffffffff1673ffffffffffffffffffffffffffffffffffffffff168152602001908152602001600020600001819055508060ff16600560003373ffffffffffffffffffffffffffffffffffffffff1673ffffffffffffffffffffffffffffffffffffffff16815260200190815260200160002060010160006101000a81548161ffff021916908361ffff1602179055506004339080600181540180825580915050600190039060005260206000200160009091909190916101000a81548173ffffffffffffffffffffffffffffffffffffffff021916908373ffffffffffffffffffffffffffffffffffffffff16021790555060018160ff16141561041857346002600082825461040c9190610ca5565b92505081905550610432565b346003600082825461042a9190610ca5565b925050819055505b50565b600080600090505b6004805490508110156104d9578273ffffffffffffffffffffffffffffffffffffffff166004828154811061047557610474610cfb565b5b9060005260206000200160009054906101000a900473ffffffffffffffffffffffffffffffffffffffff1673ffffffffffffffffffffffffffffffffffffffff1614156104c65760019150506104df565b80806104d190610d2a565b91505061043d565b50600090505b919050565b60008054906101000a900473ffffffffffffffffffffffffffffffffffffffff1673ffffffffffffffffffffffffffffffffffffffff163373ffffffffffffffffffffffffffffffffffffffff1614156105715760008054906101000a900473ffffffffffffffffffffffffffffffffffffffff1673ffffffffffffffffffffffffffffffffffffffff16ff5b565b6000600254905090565b60056020528060005260406000206000915090508060000154908060010160009054906101000a900461ffff16905082565b60035481565b6000600354905090565b6105c7610980565b60008060008080600080600090505b6004805490508110156106f257600481815481106105f7576105f6610cfb565b5b9060005260206000200160009054906101000a900473ffffffffffffffffffffffffffffffffffffffff1691508861ffff16600560008473ffffffffffffffffffffffffffffffffffffffff1673ffffffffffffffffffffffffffffffffffffffff16815260200190815260200160002060010160009054906101000a900461ffff1661ffff1614156106df578188886103e8811061069957610698610cfb565b5b602002019073ffffffffffffffffffffffffffffffffffffffff16908173ffffffffffffffffffffffffffffffffffffffff168152505086806106db90610d2a565b9750505b80806106ea90610d2a565b9150506105d6565b5060018861ffff16141561070f576003549450600254935061071a565b600254945060035493505b60005b8681101561088157600073ffffffffffffffffffffffffffffffffffffffff1688826103e8811061075157610750610cfb565b5b602002015173ffffffffffffffffffffffffffffffffffffffff161461078d5787816103e8811061078557610784610cfb565b5b602002015193505b600560008573ffffffffffffffffffffffffffffffffffffffff1673ffffffffffffffffffffffffffffffffffffffff16815260200190815260200160002060000154925087816103e881106107e6576107e5610cfb565b5b602002015173ffffffffffffffffffffffffffffffffffffffff166108fc612710876127108a6108169190610d73565b6108209190610dfc565b61271061082d9190610ca5565b866108389190610d73565b6108429190610dfc565b9081150290604051600060405180830381858888f1935050505015801561086d573d6000803e3d6000fd5b50808061087990610d2a565b91505061071d565b50600560008273ffffffffffffffffffffffffffffffffffffffff1673ffffffffffffffffffffffffffffffffffffffff1681526020019081526020016000206000808201600090556001820160006101000a81549061ffff02191690555050600460006108ef91906109a4565b6000945060009350600060028190555060006003819055505050505050505050565b60025481565b60008054906101000a900473ffffffffffffffffffffffffffffffffffffffff1681565b60015481565b6004818154811061095157600080fd5b906000526020600020016000915054906101000a900473ffffffffffffffffffffffffffffffffffffffff1681565b60405180617d0001604052806103e890602082028036833780820191505090505090565b50805460008255906000526020600020908101906109c291906109c5565b50565b5b808211156109de5760008160009055506001016109c6565b5090565b600080fd5b600060ff82169050919050565b6109fd816109e7565b8114610a0857600080fd5b50565b600081359050610a1a816109f4565b92915050565b600060208284031215610a3657610a356109e2565b5b6000610a4484828501610a0b565b91505092915050565b600073ffffffffffffffffffffffffffffffffffffffff82169050919050565b6000610a7882610a4d565b9050919050565b610a8881610a6d565b8114610a9357600080fd5b50565b600081359050610aa581610a7f565b92915050565b600060208284031215610ac157610ac06109e2565b5b6000610acf84828501610a96565b91505092915050565b60008115159050919050565b610aed81610ad8565b82525050565b6000602082019050610b086000830184610ae4565b92915050565b6000819050919050565b610b2181610b0e565b82525050565b6000602082019050610b3c6000830184610b18565b92915050565b600061ffff82169050919050565b610b5981610b42565b82525050565b6000604082019050610b746000830185610b18565b610b816020830184610b50565b9392505050565b610b9181610b42565b8114610b9c57600080fd5b50565b600081359050610bae81610b88565b92915050565b600060208284031215610bca57610bc96109e2565b5b6000610bd884828501610b9f565b91505092915050565b6000610bec82610a4d565b9050919050565b610bfc81610be1565b82525050565b6000602082019050610c176000830184610bf3565b92915050565b610c2681610b0e565b8114610c3157600080fd5b50565b600081359050610c4381610c1d565b92915050565b600060208284031215610c5f57610c5e6109e2565b5b6000610c6d84828501610c34565b91505092915050565b7f4e487b7100000000000000000000000000000000000000000000000000000000600052601160045260246000fd5b6000610cb082610b0e565b9150610cbb83610b0e565b9250827fffffffffffffffffffffffffffffffffffffffffffffffffffffffffffffffff03821115610cf057610cef610c76565b5b828201905092915050565b7f4e487b7100000000000000000000000000000000000000000000000000000000600052603260045260246000fd5b6000610d3582610b0e565b91507fffffffffffffffffffffffffffffffffffffffffffffffffffffffffffffffff821415610d6857610d67610c76565b5b600182019050919050565b6000610d7e82610b0e565b9150610d8983610b0e565b9250817fffffffffffffffffffffffffffffffffffffffffffffffffffffffffffffffff0483118215151615610dc257610dc1610c76565b5b828202905092915050565b7f4e487b7100000000000000000000000000000000000000000000000000000000600052601260045260246000fd5b6000610e0782610b0e565b9150610e1283610b0e565b925082610e2257610e21610dcd565b5b82820490509291505056fea26469706673582212205a22baa1d36022906627a58577da32264b99c8277792ea39ca1790aa06cae37664736f6c63430008090033",
    "linkReferences": {},
    "deployedLinkReferences": {}
}